:020000040000FA
:10000000012855200614332006103320061433200F
:10001000061033200614332006103320061439202E
:100020000610332006143920061033200614392018
:100030000610332006143320061033200614332014
:1000400006103320061433200610332039200228EE
:1000500038308C008C0B2A28080038308D0028207E
:100060008D0B2F28080038308E002D208E0B352860
:1000700008003320332033200800061439200610EE
:100080003320080006143320061033200800000037
:100090002E308E00BD308D0025308C008C0B4E280C
:1000A0008D0B4C288E0B4A2808008501860183168B
:0600B00086018312080026
:0400B60000340034DE
:02400E00313F40
:00000001FF
